:1000000002530875C10543C120221402297A438E88
:10001000805389F0758A50758CFBC28DD2A9C2B904
:10002000D28C22025126C296125FF5D2957F011220
:100030005FF9D2967F01125FF9C2957F05125FF9D1
:10004000D29522025861E4F532900044F0A3F07892
:10005000467C007D017BFF7A2179C0FE7F50120D26
:100060006E78967C007D017BFF7A2279107E007F7E
:100070002D120D6E78C37C007D017BFF7A22793DC5
:100080007E007F2D120D6EE49000F0F0C200C201E0
:1000900078337C00FD7BFF7A22796AFE7F0E120D99
:1000A0006E201303020189C2137E007F2D7D007B29
:1000B000017A0079C312123E900499E064CC705129
:1000C0009004A6E0642D7049A3E064A070439005FD
:1000D00019E0C3942D403A78937C047D017B017A2A
:1000E0000479A07E007F06120D6E900499E09000C6
:1000F000C3F078C47C007D017B017A0479A67E0080
:100100007F20120D6EE490051AF090048E742D80FD
:1001100039900499E064AA7037A3E064217031A398
:10012000E064A0702B900519E0B4212478C37C0012
:100130007D017B017A0479997E007F21120D6E90FA
:10014000051A7401F090048E7421F09000F0803252
:10015000900499E064AA702FA3E0B40E2A900519C8
:10016000E0B40E2378C37C007D017B017A04799989
:100170007E007F0E120D6E90051A7402F09000F052
:10018000740EF0D2008002C20030007AC202C203B4
:10019000C2009000F0E024F2605024E16004240CDE
:1001A00070627B017A0079C87D1C125BBC9000C72D
:1001B000E0B50702D20278C87C007D017B017A0697
:1001C00079047E007F0512121AEF7002D2039000AC
:1001D000C6E0B41402D2029000C6E0B40902D20311
:1001E000A20382035020D201801C78C67C007D01CE
:1001F0007B017A0679047E007F0512121AEF7006E1
:10020000D2018002C201200103020BF7C2017F0A62
:100210007E0012614490051AE014600D1470030210
:100220000B5624026003020BF7C202D2039000C6F1
:10023000E09000F1F0121068037F09026610056E6D
:100240001105D11408641708B1180909190ABD1F4E
:100250000A6C2202AD2602EE2903292A0721310960
:10026000A93200000B119000CEE014600B04700D59
:100270009004907401F08005E4900490F09000A543
:1002800074FFF09000CEE09000A1F090060CE0909A
:1002900000A4B401057401F080037402F090010021
:1002A00074FFF0A3741EF0A37430020B07900100DA
:1002B00074FFF0A3741EF0A37440F09000D2E02409
:1002C00001FEE433900103F0A3CEF07B017A0079C4
:1002D0004612267A9000D2E0F46008E09005EEF035
:1002E00012603B9005EEE09000A5F0020B1190012A
:1002F0000074FFF0A3741EF0A37468F09000D2E0C5
:100300002401FEE433900103F0A3CEF07B017A00D8
:10031000794612267A9000D2E0F46008E09005EE6B
:10032000F0126225C203020B1178257C007D007B50
:10033000FF7A2279787E007F0D120D6E9001007495
:10034000FFF0A3741EF0A37492F07B017A0079464B
:1003500012267A7B007A00792590033AE4F0A374A0
:100360000DF07F507E00125C2C78A67C007D017B16
:10037000007A0079257E007F0D120D6E020B11E4CC
:100380009000F2F07B017A0079F290033AF0A30436
:10039000F07F057E00125C2C90010074FFF0A374C6
:1003A0001EF0A374BEF07B017A00794612267A7B98
:1003B000017A007946126159AD077B017A007946CE
:1003C000125CAA7E007F507D007B017A0079461284
:1003D000123E1261A79000F2E0600302055C78F320
:1003E0007C007D017BFF7A227985FE7F04120D6EF1
:1003F00078F37C007D017B017A0079C97E007F045F
:10040000120D6E7B017A0079F312434450597B013F
:100410007A0079F3900133E4F0A37404F07F407E16
:100420000012551890010074FFF0A3741EF0A3741D
:10043000DFF09000F3E0FF900103E4F0A3EFF09011
:1004400000F4E0FF900105E4F0A3EFF09000F5E088
:10045000FF900107E4F0A3EFF09000F6E0FF9001B9
:1004600009E4F0A3EF800D90010074FFF0A3741F66
:10047000F0A3740CF07B017A00794612267A7B0196
:100480007A007946126159AD077B017A00794612EC
:100490005CAA7E007F507D007B017A0079461212B3
:1004A0003E9000CFE0900044F09000D0E0900045F6
:1004B000F07B017A007944900133E4F0A304F07FEB
:1004C000037E001255187B017A007945900133E4D0
:1004D000F0A304F07F047E0012551890010074FF11
:1004E000F0A3741FF0A3743AF0900044E0FF900171
:1004F00003E4F0A3EFF0900045E0FF900105E4F085
:10050000A3EFF07B017A00794612267A7B017A000C
:100510007946126159AD077B017A007946125CAACF
:100520007E007F507D007B017A00794612123E905A
:10053000010074FFF0A3741FF0A37468F07B017ACC
:1005400000794612267A90060CE09000A4B40106C9
:100550007401F0020B117402F0020B11C20390013E
:100560000074FFF0A3741FF0A37483020B07E490E0
:1005700000F2F07B017A0079F290033AF0A304F0E4
:100580007F057E00125C2C9000F2E060323025087E
:100590009000A17401F08005E49000A1F090060C99
:1005A000E09000A4B401057401F080037402F0909F
:1005B000010074FFF0A3741FF0A3749C020B07C228
:1005C0000390010074FFF0A3741FF0A374BD020B2D
:1005D00007E49000F2F078F37C007D017BFF7A2243
:1005E0007989FE7F07120D6E9000DDE09000F3F038
:1005F0009000DEE09000F4F09000DFE09000F6F074
:100600009000E0E09000F7F09000E1E09000F8F05A
:100610009000E2E09000F5F078FA7C007D017B012B
:100620007A0079F37E007F07120D6E12558F9001CC
:100630000074FFF0A3741FF0A374EAF07B017A004A
:10064000794612267A7B017A007946126159AD0704
:100650007B017A007946125CAA7E007F507D007B88
:10066000017A00794612123E9000D0E024606003C7
:1006700002070EE49000F2F09000F2E0FFC3940451
:10068000505FEF75F003A424D1F582E43400F583C4
:10069000E0B48045900615E0FF9000F2E0FE7401A2
:1006A000A806088002C333D8FC4F900615F0EE75FB
:1006B000F003A424D1F582E43400F583C083C08222
:1006C000E0FF9000E2E014FE7401A806088002C377
:1006D00033D8FC4FD082D083F09000F2E004F08059
:1006E000977B017A0079D1900133E4F0A3740CF088
:1006F0007F107E0012551890010074FFF0A3742043
:10070000F0A3741EF07B017A00794612267A9000DD
:10071000CFE09000A2F09000D0E09000A3F0020B98
:1007200011E49000F2F078F37C007D017BFF7A22E7
:100730007990FE7F07120D6E9000DDE09000F3F0DF
:100740009000DEE09000F4F09000DFE09000F6F022
:100750009000E0E09000F7F09000E1E09000F8F009
:100760009000E2E09000F5F078FA7C007D017B01DA
:100770007A0079F37E007F07120D6E12558F90017B
:100780000074FFF0A37420F0A37433F07B017A00AF
:10079000794612267A7B017A007946126159AD07B3
:1007A0007B017A007946125CAA7E007F507D007B37
:1007B000017A00794612123ED21CE49000F2F090C9
:1007C00000F2E0FFC39404505FEF75F003A424D15E
:1007D000F582E43400F583E0B48045900613E0FF31
:1007E0009000F2E0FE7401A806088002C333D8FC32
:1007F0004F900613F0EE75F003A424D1F582E43493
:1008000000F583C083C082E0FF9000E2E014FE7434
:1008100001A806088002C333D8FC4FD082D083F0F1
:100820009000F2E004F080977B017A0079D190018A
:1008300033E4F0A3740CF07F207E001255187B0186
:100840007A0079CD900133E4F0A37404F07F307E18
:100850000012551890010074FFF0A37420F0A374E7
:1008600067020B0790010074FFF0A37420F0A374DB
:1008700080F07B017A00794612267A7B017A007932
:1008800046126159AD077B017A007946125CAA7E57
:10089000007F507D007B017A00794612123E900065
:1008A000F27401F0D214FB7A0079F2900133E48003
:1008B0004A90010074FFF0A37420F0A37495F07BBC
:1008C000017A00794612267A7B017A007946126114
:1008D00059AD077B017A007946125CAA7E007F50F1
:1008E0007D007B017A00794612123EE49000F2F01E
:1008F000C2147B017A0079F2900133F0A304F07FF7
:10090000057E00125518020B11E49000F2F09001E0
:100910000074FFF0A37420F0A374AAF07B017A00A6
:10092000794612267A7B017A007946126159AD0721
:100930007B017A007946125CAA7E007F507D007BA5
:10094000017A00794612123E7B017A0079A4900365
:100950003AE4F0A3740CF07F107E00125C2CE4905B
:1009600000F2F09000F2E0FFC39404503774017E6F
:1009700000A807088005C333CE33CED8F9FF900610
:1009800015E0FDEF5D60159000F2E075F003A42422
:10099000A4F582E43400F583E05480F09000F2E0A6
:1009A00004F080BFD202020B11E49000F2F090013B
:1009B0000074FFF0A37420F0A374C7F07B017A00E9
:1009C000794612267A7B017A007946126159AD0781
:1009D0007B017A007946125CAA7E007F507D007B05
:1009E000017A00794612123E7B017A0079A09003C9
:1009F0003AE4F0A37404F07F307E00125C2C7B019B
:100A00007A0079A490033AE4F0A3740CF07F207E7E
:100A100000125C2CE49000F2F09000F2E0FFC3942E
:100A200004503774017E00A807088005C333CE3315
:100A3000CED8F9FF900613E0FDEF5D60159000F24F
:100A4000E075F003A424A4F582E43400F583E054B7
:100A500080F09000F2E004F080BFD20290010074B8
:100A6000FFF0A37420F0A374E4020B07900100745C
:100A7000FFF0A37420F0A374FFF07B017A007946A5
:100A800012267A7B017A007946126159AD077B0103
:100A90007A007946125CAA7E007F507D007B017A45
:100AA00000794612123E90010074FFF0A37421F009
:100AB000A37424F07B017A00794612267A90010013
:100AC00074FFF0A37421F0A3743DF07B017A0079E8
:100AD0004612267A7B017A007946126159AD077B6E
:100AE000017A007946125CAA7E007F507D007B016E
:100AF0007A00794612123E123ED590010074FFF042
:100B0000A37421F0A37452F07B017A007946122677
:100B10007A3003257B017A0079969000F1E090000D
:100B2000FEF0A20292047D0A1232ED7B017A007976
:100B30009690048EE0FD12623990051AE06402700E
:100B400003020BD49000F1E064097003020BD47F20
:100B500001125903807E9000C5E024DE707678F1A2
:100B60007C007D017BFF7A2279977E007F07120D42
:100B70006E9000F17412F09000CBE09000F3F090D2
:100B800000CCE09000F2F09000CDE09000F4F09006
:100B900000CEE09000F5F09000CFE09000F6F090ED
:100BA00000D0E09000F7F078FA7C007D017B017ABC
:100BB0000079F17E007F07120D6E12558F900100B3
:100BC00074FFF0A37421F0A37463F07B017A0079C1
:100BD0004612267A7B017A007946126159AD077B6D
:100BE000017A007946125CAA7E007F507D007B016D
:100BF0007A00794612123E900491E0FEA3E0FFC312
:100C000090048CE09F90048BE09E5003020C9DE4C6
:100C100090048BF0A3F0301148B211FB7A007933C5
:100C20009000FE740EF07422124D747B017A0079EC
:100C30004490033AE4F0A304F07F037E00125C2C9E
:100C40007B017A00794590033AE4F0A304F07F0435
:100C50007E00125C2C900044E0F53CA3E0F53D8062
:100C600031B2117B007A0079339000FE740EF0747B
:100C700023124D74A214E433F53CA224E433F53D71
:100C8000A225E433F53E90060CE0F53FA223E433C1
:100C9000F5407B007A0079337D0E12623922E70934
:100CA000F608DFFA8046E709F208DFFA803E88821C
:100CB0008C83E709F0A3DFFA8032E309F608DFFA54
:100CC0008078E309F208DFFA807088828C83E30978
:100CD000F0A3DFFA806489828A83E0A3F608DFFA52
:100CE000805889828A83E0A3F208DFFA804C80D2A0
:100CF00080FA80C680D4806980F28033801080A61C
:100D000080EA809A80A880DA80E280CA8033898273
:100D10008A83ECFAE493A3C8C582C8CCC583CCF01F
:100D2000A3C8C582C8CCC583CCDFE9DEE7800D89C6
:100D3000828A83E493A3F608DFF9ECFAA9F0EDFBCD
:100D40002289828A83ECFAE0A3C8C582C8CCC58315
:100D5000CCF0A3C8C582C8CCC583CCDFEADEE8806E
:100D6000DB89828A83E493A3F208DFF980CC88F0E0
:100D7000EF60010E4E60C388F0ED2402B404005011
:100D8000B9F582EB2402B4040050AF23234582233B
:100D9000900CEE73BB010689828A83E0225002E741
:100DA00022BBFE02E32289828A83E49322BB010CE8
:100DB000E58229F582E5833AF583E0225006E925AC
:100DC00082F8E622BBFE06E92582F8E222E58229C6
:100DD000F582E5833AF583E49322BB010689828A92
:100DE00083F0225002F722BBFE01F322F8BB010D73
:100DF000E58229F582E5833AF583E8F0225006E999
:100E00002582C8F622BBFE05E92582C8F222EF8DB5
:100E1000F0A4A8F0CF8CF0A428CE8DF0A42EFE2252
:100E2000BC000BBE0029EF8DF084FFADF022E4CCB6
:100E3000F875F008EF2FFFEE33FEEC33FCEE9DEC7F
:100E4000984005FCEE9DFE0FD5F0E9E4CEFD22EDC5
:100E5000F8F5F0EE8420D21CFEADF075F008EF2F0F
:100E6000FFED33FD4007985006D5F0F222C398FD00
:100E70000FD5F0EA22C5F0F8A3E028F0C5F0F8E5B8
:100E800082158270021583E038F022A3F8E0C5F0E5
:100E900025F0F0E582158270021583E0C838F0E88D
:100EA00022BB0110E58229F582E5833AF583E0F55E
:100EB000F0A3E0225009E92582F886F008E622BB7B
:100EC000FE0AE92582F8E2F5F008E222E5832AF538
:100ED00083E993F5F0A3E9932275F008758200EF9A
:100EE0002FFFEE33FECD33CDCC33CCC58233C5825C
:100EF0009BED9AEC99E58298400CF582EE9BFEED15
:100F00009AFDEC99FC0FD5F0D6E4CEFBE4CDFAE4E3
:100F1000CCF9A88222B800C1B90059BA002DEC8BD7
:100F2000F084CFCECDFCE5F0CBF97818EF2FFFEEB3
:100F300033FEED33FDEC33FCEB33FB10D70399406C
:100F400004EB99FB0FD8E5E4F9FA227818EF2FFFAC
:100F5000EE33FEED33FDEC33FCC933C910D7059BEE
:100F6000E99A4007EC9BFCE99AF90FD8E0E4C9FA4A
:100F7000E4CCFB2275F010EF2FFFEE33FEED33FDD6
:100F8000CC33CCC833C810D7079BEC9AE899400AF9
:100F9000ED9BFDEC9AFCE899F80FD5F0DAE4CDFB77
:100FA000E4CCFAE4C8F922EB9FF5F0EA9E42F0E9BE
:100FB0009D42F0E89C45F022E8600FECC313FCED85
:100FC00013FDEE13FEEF13FFD8F122BB010DE582F6
:100FD00029F582E5833AF5830212775007E92582E5
:100FE000F802126ABBFE07E92582F8021283E58245
:100FF00029F582E5833AF583021290ECF0A3EDF037
:10100000A3EEF0A3EFF022A8828583F0D083D082F4
:1010100012101E12101E12101E12101EE473E49302
:10102000A3C583C5F0C583C8C582C8F0A3C583C561
:10103000F0C583C8C582C822BB010DE58229F582AF
:10104000E5833AF5830212A95007E92582F80212D6
:10105000A0BBFE07E92582F80212D2E58229F582BB
:10106000E5833AF5830212DBD083D082F8E49370F3
:1010700012740193700DA3A393F8740193F5828801
:1010800083E4737402936860EFA3A3A380DF8A8371
:101090008982E473E3F5F009E208B5F06BDFF580CF
:1010A00067E3F5F009E608B5F05EDFF5805A87F0F2
:1010B00009E608B5F052DFF6804E87F009E208B580
:1010C000F046DFF6804288828C8387F009E0A3B582
:1010D000F036DFF6803288828C8387F009E493A3B0
:1010E000B5F025DFF5802188828C83E3F5F009E0F7
:1010F000A3B5F014DFF5801088828C83E3F5F00946
:10110000E493A3B5F002DFF40211C3808780E98085
:101110009080D4803E8015806E807E809D80B780D8
:101120008D80A380518074803C0211CF89828A8394
:10113000ECFAE493F5F0A3C8C582C8CCC583CCE42F
:1011400093A3C8C582C8CCC583CCB5F076DFE3DEF7
:10115000E1807089828A83E493F5F0A3E208B5F018
:1011600062DFF4805E89828A83E0F5F0A3E608B549
:10117000F051DFF5804D89828A83E0F5F0A3E20823
:10118000B5F040DFF5803C89828A83E493F5F0A3D3
:10119000E608B5F02EDFF4802A8002805789828A23
:1011A00083ECFAE493F5F0A3C8C582C8CCC583CC20
:1011B000E0A3C8C582C8CCC583CCB5F006DFE4DEA9
:1011C000E280007FFFB5F0020F2240027F012289FA
:1011D000828A83ECFAE0F5F0A3C8C582C8CCC58347
:1011E000CCE0A3C8C582C8CCC583CCB5F0D5DFE5BB
:1011F000DEE380CF89828A83ECFAE0F5F0A3C8C5EC
:1012000082C8CCC583CCE493A3C8C582C8CCC583AF
:10121000CCB5F0AFDFE4DEE280A988F0EF60010E2C
:101220004E60ABED2402B404005098F582EB24022A
:10123000B40400508E232345822390110B73EF4E8C
:101240006012EF60010EEDBB010B89828A83F0A36F
:10125000DFFCDEFA2289F05007F709DFFCA9F02253
:10126000BBFEFCF309DFFCA9F022E6FB08E6F90867
:10127000E6FA08E6CBF822E0F8A3E0F9A3E0FAA347
:10128000E0FB22E2FB08E2F908E2FA08E2CBF822EE
:10129000E493F8740193F9740293FA740393FB22B4
:1012A000E6FB08E6FA08E6F922E0FBA3E0FAA3E091
:1012B000F922F8E0FBA3A3E0F925F0F0E58215821E
:1012C00070021583E0FA38F022EBF0A3EAF0A3E90C
:1012D000F022E2FB08E2FA08E2F922E493FB74014F
:1012E00093FA740293F922E4900044F078457C006C
:1012F0007D017BFF7A417903FE7F07120D6E784CEA
:101300007C007D017BFF7A41790A7E007F0C120D03
:101310006EE4900058F0A3F0785A7C007D017BFFCA
:101320007A417916FE7F04120D6E7B017A007945B1
:10133000124EFF7B017A00794CE4FD1244B4900018
:101340004CE020E71A90004FE020E713900052E0B5
:1013500020E70C900055E020E705C2240214CCD20F
:1013600024E4900044F0900044E0FFC39404400360
:101370000214CC1259E540030214C3900044E075F6
:10138000F003A4244CF582E43400F583E0FFC41399
:101390001313540120E0030214C3785E7C007D0126
:1013A0007BFF7A41791A7E007F50120D6E9001000A
:1013B00074FFF0A37440F0A37452F0900044E0FD79
:1013C000900103E4F0A3EDF075F003A4244DF58241
:1013D000E43400F583E0131313541FFF900105E478
:1013E000F0A3EFF0900044E075F003A4244EF582E2
:1013F000E43400F583E0FF900107E4F0A3EFF07B15
:10140000017A00795E12267A900044E0FF75F003BD
:10141000A4244DF582E43400F583E0131313541F24
:10142000FE900049E06E60030214C3EF75F003A460
:10143000244EF582E43400F583E0FF90004AE06F2B
:1014400060030214C3A3E0D394025077900044E0F9
:10145000FF74017E00A807088005C333CE33CED8C1
:10146000F9FF900615E0FDFBEF5B6033900044E070
:10147000FC7401A804088002C333D8FCF45D900614
:1014800015F0EC75F003A42410FFE435F0FE7BFFAB
:101490007A41796A900133E4F0A304F01255189070
:1014A0000044E075F003A4244DF582E43400F58394
:1014B000E0540730E007E4900614F080069006142C
:1014C0007401F0900044E004F00213667B017A009E
:1014D000794C7D011244B47B017A00795A90033A29
:1014E000E4F0A37404F07F307E00125C2C90004C7A
:1014F000E020E71890004FE020E711900052E02034
:10150000E70A900055E020E703C22322E490005E42
:10151000F0A3F078607C007D017BFF7A41796BFE5F
:101520007F08120D6E78687C007D017BFF7A41791F
:10153000737E007F08120D6ED223900049E075F093
:101540003CA4FFA3E07C002FFEEC35F090005EF0A1
:10155000A3CEF07E007F087D007B017A00796012C7
:10156000123E7E007F087D007B017A0079681212AE
:101570003EE4900044F0900044E0FFC39404400334
:101580000216661259E5400302165D900044E0FF22
:1015900075F003A4244CF582E43400F583E0C41311
:1015A0001313540120E00302165D745A2FF582E4F0
:1015B0003400F583E0900044B4FF25E025E024608A
:1015C000F582E43400F583E4F0A3F0EF25E024682D
:1015D000F582E43400F5837405F0A3749FF0807DF8
:1015E000E0FD75F003A4244DF582E43400F583E0BA
:1015F000131313541F75F03CA4FFAEF0ED75F00308
:10160000A4244EF582E43400F583E07C002FFFEC47
:101610003EFE900044E025E02460F582E43400F5CD
:1016200083EEF0A3EFF0745A2DF582E43400F583D5
:10163000E0FF7E00ED25E02460F582E43400F583D0
:10164000E0FCA3E02FFFEE3CFE900044E025E02408
:1016500068F582E43400F583EEF0A3EFF0900044E7
:10166000E004F002157678707C007D017BFF7A4102
:10167000797B7E007F50120D6E90010074FFF0A305
:101680007440F0A37477F0900060E0FFA3E0900155
:1016900003CFF0A3EFF0900068E0FFA3E090010516
:1016A000CFF0A3EFF0900062E0FFA3E0900107CF3E
:1016B000F0A3EFF090006AE0FFA3E0900109CFF003
:1016C000A3EFF0900064E0FFA3E090010BCFF0A344
:1016D000EFF090006CE0FFA3E090010DCFF0A3EFDE
:1016E000F0900066E0FFA3E090010FCFF0A3EFF0D1
:1016F00090006EE0FFA3E0900111CFF0A3EFF09017
:10170000005EE0FFA3E0900113CFF0A3EFF07B01B8
:101710007A00797012267A900612E0C3940A500576
:10172000E004F08005E4900612F0900060E0FEA373
:10173000E0FF90005EE0FCA3E0FDC39FEC9E400E46
:10174000900068E0FEA3E0FFED9FEC9E406B9000F0
:1017500062E0FEA3E0FFC3ED9FEC9E401490006AA0
:10176000E0FEA3E0FF90005FE09F90005EE09E40FF
:1017700048900064E0FEA3E0FF90005EE0FCA3E080
:10178000FDC39FEC9E400E90006CE0FEA3E0FFEDD9
:101790009FEC9E4024900066E0FEA3E0FF90005E78
:1017A000E0FCA3E0FDC39FEC9E402D90006EE0FEA8
:1017B000A3E0FFED9FEC9E501F900044E075F00306
:1017C000A4244DF582E43400F583E0540730E004AE
:1017D000D21C8021C21C801D900044E075F003A43F
:1017E000244DF582E43400F583E0540730E004C270
:1017F0001C8002D21CE4900044F0900044E0FFC33F
:10180000940440030218BBEF75F003A4244CF58246
:10181000E43400F583E0C4131313540120E0030201
:1018200018B2900044E0FF25E02468F582E434001B
:10183000F583E0FCA3E0FDC390005FE09D90005EB7
:10184000E09C406E74017E00A807088005C333CE7B
:1018500033CED8F9FF900613E0FDFBEF5B605390A9
:101860000044E0FC7401A804088002C333D8FCF4EF
:101870005D900613F0EC75F003A42420FFE435F02E
:10188000FE7BFF7A4179CB900133E4F0A304F012A0
:101890005518900044E075F003A42430FFE435F0BF
:1018A000FE7BFF7A4179CB900133E4F0A304F01280
:1018B0005518900044E004F00217FA2278257C00C5
:1018C0007D007BFF7A3079397E007F2D120D6E7896
:1018D000527C007D007BFF7A3079667E007F0D129E
:1018E0000D6E9005F4E0147003021B6824FE700373
:1018F000021AB5046003021BDB7F027E0012614402
:10190000903073E493FF9005EBE0C39F5003021BFC
:101910007D9005EEE0FDE4FF1249419005F3E0649F
:10192000027034301E31C21E7F051259039005EE3D
:10193000E0F53475310A7B007A0079259000FE7459
:1019400026F0C2047D0A1232ED7B007A00792590E0
:10195000048EE0FD1262399005EFE064046003023A
:101960001A409005EEE0131313541FFFC3745C9FDD
:10197000FF900044F0E4A3F0FE7B017A00794590EB
:10198000033AF0A304F0125C2C900045E0FF9005B0
:10199000EEE05407FE7401A806088002C333D8FCA9
:1019A0004F900045F0900044E0FF7E007B017A00FC
:1019B0007945900133E4F0A304F01255189005ED39
:1019C0007402F0902FAEE493FF7401939005F0CF72
:1019D000F0A3EFF09005EEE0F53475310B7B007A63
:1019E00000795290033AE4F0A3740DF07F507E002A
:1019F000125C2C78357C007D007B007A0079527E69
:101A0000007F0D120D6E7B007A0079259000FE7428
:101A100027F0C2047D0A1232ED7B007A007925900E
:101A2000048EE0FD1262399005EE74FFF09005F42B
:101A30007404F09005EF7401F07E2F7F501261DA8C
:101A40009005F5E07002A3E06003021BE112621E44
:101A50007B087D147C007F051260199005ED7401F0
:101A6000F0902FAEE493FF7401939005F0CFF0A3B4
:101A7000EFF09005EEE0F53475310F7B007A0079D8
:101A8000259000FE7428F0C2047D0A1232ED7B001E
:101A90007A00792590048EE0FD1262399005EE748B
:101AA000FFF09005F47404F09005EF7401F07E2FC0
:101AB0007F62021B639005EEE0FF12541A7F0C1246
:101AC00055FD786DE66003021BE19005EEE013130F
:101AD00013541FFFC3745C9FFF900044F0E4A3F015
:101AE000FE7B017A00794590033AF0A304F0125C82
:101AF0002C900045E0FF9005EEE05407FE7401A82D
:101B000006088002C333D8FCF45F900045F09000D3
:101B100044E0FF7E007B017A007945900133E4F0D8
:101B2000A304F01255189005EEE0F53475310A7BE8
:101B3000007A0079259000FE7429F0C2047D0A1213
:101B400032ED7B007A00792590048EE0FD12623937
:101B50009005EE74FFF09005F47404F01262157EA7
:101B60002F7F7E1261DA80797F027E0012614490BD
:101B70003074E493FF9005ECE0C39F5005E004F05F
:101B8000805FE49005ECF0301C4C1245F990004465
:101B9000EFF0F4604CE0F534302505E4F5308003D7
:101BA00075300190060CE0B40105753301800375B2
:101BB00033027B007A00792590004A740AF0A374FE
:101BC00010F0C2007F01123A017B007A0079257D76
:101BD00021126239800B12611480069005F474049E
:101BE000F09005EDE0FF64037003021DDCEF14705C
:101BF00003021D12146003021DD69005F0E070026E
:101C0000A3E07003021D1C9005F0E0FEA3E0FF7C42
:101C1000007D96120E20EF640A4E700312621E9031
:101C200005F0E0FEA3E0FF7C007D96120E20EF643D
:101C3000094E7005FDFF1256579005F0E0FEA3E037
:101C4000FF7C007D96120E20EF64084E7006FD7F2B
:101C5000011256579005F0E0FEA3E0FF7C007D9650
:101C6000120E20EF64074E7006FD7F021256579049
:101C700005F0E0FEA3E0FF7C007D96120E20EF64ED
:101C8000064E7005FDFF1256579005F0E0FEA3E0EA
:101C9000FF7C007D96120E20EF64054E7006FD7FDE
:101CA000011256579005F0E0FEA3E0FF7C007D9600
:101CB000120E20EF64044E7006FD7F0212565790FC
:101CC00005F0E0FEA3E0FF7C007D96120E20EF649D
:101CD000034E7005FDFF1256579005F0E0FEA3E09D
:101CE000FF7C007D96120E20EF64024E7006FD7F91
:101CF000011256579005F0E0FEA3E0FF7C007D96B0
:101D0000120E20EF64014E6003021DDCFD7F020213
:101D100056579005F0E07002A3E0700C9005ED744A
:101D200003F012621E0262159005F0E0FEA3E0FFD0
:101D30007C007DC8120E20EF64074E700312621EF5
:101D40009005F0E0FEA3E0FF7C007DC8120E20EFBE
:101D500064064E7005FDFF1256579005F0E0FEA395
:101D6000E0FF7C007DC8120E20EF64054E70031268
:101D7000621E9005F0E0FEA3E0FF7C007DC8120E1D
:101D800020EF64044E7005FDFF1256579005F0E0F9
:101D9000FEA3E0FF7C007DC8120E20EF64034E70AE
:101DA0000312621E9005F0E0FEA3E0FF7C007DC8F8
:101DB000120E20EF64024E7005FDFF12565790057B
:101DC000F0E0FEA3E0FF7C007DC8120E20EF64016E
:101DD0004E700902621E9005ED7403F02269276DB2
:101DE00020554152543120666F7220776966692010
:101DF00064617461207472616E736C61746520211A
:101E000021210069276D20554152543220666F729E
:101E10002066696E6765727072696E7420646174A1
:101E200061207472616E736C6174652021212100E0
:101E3000BDD3CAD5B5BDBFD8D6C6D6B8C1EE0A0087
:101E4000BDD3CAD5B5BDD6B8CEC6D1A7CFB0D6B84A
:101E5000C1EEA3ACD1A7CFB0C4A3B0E54944BAC585
:101E6000CEAAA3BA25750A00BDD3CAD5B5BDD6B8CA
:101E7000CEC6C4A3B0E5C9BEB3D6B8C1EEA3ACC943
:101E8000BEB3C4A3B0E54944BAC5CEAAA3BA25756A
:101E90000A00BDD3CAD5B5BDD6B8CEC6C4A3B0E579
:101EA000B2E9D1AFD6B8C1EEA3ACBDABB7B5BBD824
:101EB000D6B8CEC6D5BCCEBBCABEDD2E0A00BDD3B9
:101EC000CAD5B5BD736D6172746C696E6B20C5E463
:101ED000D6C32FCBD1CBF720D6B8C1EE2E0A00B790
:101EE000FECEF1C6F74950CDACB2BDB3C9B9A62CF0
:101EF000B5B1C7B0B7FECEF1C6F74950CEAA3A2564
:101F0000642E25642E25642E25640A00B7FECEF1CA
:101F1000C6F74950CDACB2BDCAA7B0DC2CBCCCD002
:101F2000F8CAB9D3C3B1BEB5D8B4E6B4A2B5C4B784
:101F3000FECEF1C6F749502E0A00CAB1C7F8B1BEAD
:101F4000B5D8CDACB2BDB8FCD0C2CDEAB3C92CB5C2
:101F5000B1C7B0CAB1C7F8CEAA3ACAB12D25642C10
:101F6000B7D62D25642E0A00C5E4D6C3D0C5CFA2AE
:101F7000B1BEB5D8CDACB2BDB8FCD0C2CDEAB3C904
:101F80002E0A00C9E8B1B8D2D1C9CFCBF82CBEDC3B
:101F9000BEF8BBD8B8B4CFECD3A60A00BDD3CAD51F
:101FA000B5BDB2E9D1AFCBD1CBF7D6B8C1EE2CBB22
:101FB000D8B8B4CFECD3A6CDEAB3C90A00BDD3CA12
:101FC000D5B5BDB2E9D1AFCBD1CBF7D6B8C1EE2CE8
:101FD000C9E8B1B8D2D1C9CFCBF82CBEDCBEF8BBB2
:101FE000D8B8B4CFECD3A62E0A00BDD3CAD5B5BDA0
:101FF000BED6D3F2CDF8C6D5CDA8BFAAB9D8B6A85B
:10200000CAB1C5E4D6C3D6B8C1EE2CD0A3CAB12894
:10201000CEDEC3EB29D2D1CDEAB3C92E0A00C6D594
:10202000CDA8B6A8CAB1B8FCD0C2D2D1CDEAB3C946
:102030002E0A00BDD3CAD5B5BDBED6D3F2CDF8D6D3
:10204000B8CEC6C8A8CFDEB6A8CAB1C5E4D6C3D636
:10205000B8C1EE2CD0A3CAB128CEDEC3EB29D2D1B1
:10206000CDEAB3C92E0A00D6B8CEC6C8A8CFDEB610
:10207000A8CAB1B8FCD0C2D2D1CDEAB3C92E0A00E9
:10208000BDD3CAD5B5BDC9E8B1B8C9CFCBF8D6B8AC
:10209000C1EE2E0A00BDD3CAD5B5BDC9E8B1B8BDE1
:1020A000E2CBF8D6B8C1EE2E0A00BDD3CAD5B5BD75
:1020B000C6D5CDA8BFAAB9D8B6A8CAB1B2E9D1AF22
:1020C000D6B8C1EE2E0A00BDD3CAD5B5BDD6B8CE9E
:1020D000C6C8A8CFDEB6A8CAB1B2E9D1AFD6B8C1DA
:1020E000EE2E0A00D6B8CEC6C8A8CFDEB6A8CAB1B2
:1020F000B1EDBBD8B8B4D2D1CDEAB3C92E0A00BD78
:10210000D3CAD5B5BDBBD6B8B4B3F6B3A7B1BEB5C7
:10211000D8CAC7B7F1D6A7B3D6B2E9D1AFD6B8C13E
:10212000EE2E0A00BBD6B8B4B3F6B3A7B1BEB5D88D
:10213000D6A7B3D6B2A2BBD8B8B42E0A00BDD3CAB4
:10214000D5B5BDBBD6B8B4B3F6B3A7D6B8C1EE2EDD
:102150000A00BBD6B8B4B3F6B3A7D2D1CDEAB3C99F
:102160002E0A00D6DCC6DAD0D4B7FECEF1C6F7CA46
:10217000DACAB1D0A3D7BCD2D1CDEAB3C92E0A00F6
:10218000000000000000000000000000000000004F
:10219000000000000000000000000000000000003F
:1021A000000000000000000000000000000000002F
:1021B000000000000000000000000000000000001F
:1021C000000000000000000000000000000000000F
:1021D00000000000000000000000000000000000FF
:1021E00000000000000000000000000000000000EF
:1021F00000000000000000000000000000000000DF
:1022000000000000000000000000000000000000CE
:1022100000000000000000000000000000000000BE
:1022200000000000000000000000000000000000AE
:10223000000000000000000000000000000000009E
:10224000000000000000000000000000000000008E
:10225000000000000000000000000000000000007E
:10226000000000000000000000000000000000006E
:10227000000000000000000000000000000000005E
:10228000000000000000000000000000000000004E
:1022900000000000000000000000000000009000AE
:1022A00042EBF0A3EAF0A3E9F0900041EFF0640103
:1022B00060030224B090033C04F0E4A3F0A3F0A375
:1022C000F0A3F0A3F0A3F0900045F0900045E0FFEC
:1022D000C39480501474CA2FF582E43403F583E468
:1022E000F0900045E004F080E2E4900045F09000BA
:1022F00045E0FFC394405014744A2FF582E4340340
:10230000F583E4F0900045E004F080E2900042E0C4
:10231000FBA3E0FAA3E0F9120D94D394C040037F2D
:10232000022290000A120DADB40104D2BC8002C298
:10233000BC120D94FFE598543F4FF598EF64C060D0
:1023400008EF6440600302242A900002120FCB7F42
:10235000807E8D7D5B7C00120F15900046120FFB76
:10236000E4FFFE7D01FC900046E0F8A3E0F9A3E065
:10237000FAA3E0FBC3120FA740037F02229000469E
:10238000E0F8A3E0F9A3E0FAA3E0FBC3E49BFFE4D9
:102390009AFE740199FDE498FC900046120FFB90A0
:1023A0000042E0FBA3E0FAA3E0F9900001120DADBA
:1023B000FB64017038C28E538EFE5389BF5389CFA0
:1023C000438E40900046E0FCA3E0FDA3E0FEA3E0C6
:1023D000FF7808120FB88F8D900046A3A3A3E0F5F5
:1023E0008BC2AB5389BF538FFDD28E8076EB6402D4
:1023F0007035538EEF438E01538EF7438E04900059
:1024000046E0FCA3E0FDA3E0FEA3E0FF7808120F86
:10241000B88FD6900046A3A3A3E0F5D753AFFB53E4
:102420008EF7438E10803C7F0222900042E0FBA397
:10243000E0FAA3E0F9120D94FF7013900008120D5A
:10244000ADB40105438E20801A538EDF8015EFB4A2
:102450008011900008120DADB40105438780800300
:1024600053877F900042E0FBA3E0FAA3E0F99000DD
:1024700009120DADB40104D2AC8002C2AC900007C9
:10248000120DADB40104D29C8002C29C90000B12CC
:102490000DAD54C0FFE5A2543F4FF5A290000C12C1
:1024A0000DADB4010543971080035397EF7F0022D1
:1024B000900041E06402600302261290034374021C
:1024C000F0E4A3F0A3F0A3F0A3F0A3F0A3F0900036
:1024D00045F0900045E0FFC394405014744A2FF536
:1024E00082E43404F583E4F0900045E004F080E2F7
:1024F000E4900045F0900045E0FFC3944050147410
:102500008A2FF582E43403F583E4F0900045E0047B
:10251000F080E2900042E0FBA3E0FAA3E0F9120DA4
:1025200094FF64C06008EF644060030225D290000D
:102530000A120DADB4010543B501800353B5FE1277
:102540000D94B4C005439A808003539A7F90000293
:10255000120FCB7F807E8D7D5B7C00120F1590006B
:1025600046120FFBE4FFFE7D01FC900046E0F8A35D
:10257000E0F9A3E0FAA3E0FBC3120FA740037F0238
:1025800022900046E0F8A3E0F9A3E0FAA3E0FBC341
:10259000E49BFFE49AFE740199FDE498FC900046E8
:1025A000120FFB538EEF538EF7438E04900046E0DC
:1025B000FCA3E0FDA3E0FEA3E0FF7808120FB88FB4
:1025C000D6900046A3A3A3E0F5D753AFFB438E10EC
:1025D00080037F0222900042E0FBA3E0FAA3E0F92F
:1025E000900009120DADB4010543AF01800353AF54
:1025F000FE900007120DADB40105439A10800353FD
:102600009AEF90000B120DAD5401FFE5BA54FE4F46
:10261000F5BA7F0322E55F2400F582E43401F583F7
:10262000E0055F229000FD300B03900100E475F09F
:10263000011212B2020D942004E97F2ED2048018F8
:10264000EF540F2490D43440D4FF30080BEF24BF54
:10265000B41A0050032461FFE56060021560056351
:10266000E56370020562300B0E9000FDE475F00129
:102670001212B2EF020DDA025FCC7403D20B8003A8
:10268000E4C20BF55F9000FD1212C9E4F560F5623B
:10269000F563E56060077F2012265880F57561FFBD
:1026A000C205C204C206C207C209C20AC20C12266F
:1026B00024FF700D300B057F00122669AF63AE62F8
:1026C00022B4255FC2D5C208122624FF24D0B40A42
:1026D00000501A75F00A786030D50508B6FF01067B
:1026E000C6A426F620D5047002D20780D924CFB420
:1026F0001A00EF5004C2E5D20802286AD20580C64B
:10270000D20480C0D20680BCD2D580BAD20980B4AF
:102710007F201226582006077401B5600040F11290
:102720002615FF122658022692D20CD20A80951244
:102730002615FB122615FA122615F94A4B70067952
:102740003B7A297BFF20062EE560602A7E008E8280
:10275000758300120DAD60060EEE656170F0C2D596
:10276000EBC0E0EAC0E0E9C0E0EE1228B1D0E0F949
:10277000D0E0FAD0E0FB120D94FF60AAEBC0E0EAD3
:10278000C0E0E9C0E0122658D0E02401F9D0E034DE
:1027900000FAD0E0FBE5610460DCD561D980877B7D
:1027A000FF7A2879ADD206809C791080027908C220
:1027B0000AC20C8008D2D5790A8004790AC2D5E50C
:1027C00061047002F561E4FAFDFEFF122615FC7B40
:1027D00008200513122615FD7B1030040A12261559
:1027E000FE122615FF7B20EC3382D592D55013C301
:1027F000E43004069FFFE49EFEE42005039DFDE413
:102800009CFCE4CBF8C205EC700CCFCECDCCE82418
:10281000F8F870F38017C3EF33FFEE33FEED33FDAE
:10282000EC33FCEB33FB994002FB0FD8E9EB3005AE
:1028300005F8D0E0C448B205C0E00AEC4D4E4F7830
:10284000207B0070C2EAB5610040BCC0E01228B332
:10285000D0F0D0E0200504C4C0E0C4B205C0F0123E
:102860002641D0F0D5F0EB022692121068272F53A4
:1028700027A95827004C26FC4227AD4F27B54427EF
:10288000B54927154327BB55279F46279F45279FB7
:1028900047295B5027042D27082E272B2B270C2395
:1028A00027292029442A26C448000027233F3F3FE8
:1028B00000790AA2D5200714300909B910020404CE
:1028C000B9080104A2D5200A02500104200668922A
:1028D00006B560005034C0E07F203007197F30A279
:1028E00006720A7209500F12290AC206C20AC209E8
:1028F000C20C7F30800F300903E9C0E01226583047
:102900000903D0E0F9D0E0B560CC3009177F30B9C9
:10291000100C1226587F583008077F788003B908BA
:10292000031226583006057F2D0226587F20200CE2
:10293000F87F2B200AF322920680CF286E756C6CEC
:102940002900D2051226153005F8C205786030D569
:102950000108F60226C42D504349581226152403B7
:10296000B405004001E490295693122649743A12A6
:102970002649D2077560040227A9C0E0C0F0C083D1
:10298000C082C0D075D000C000C001C002C003C06A
:1029900004C005C006C0077F787E00900002E4F006
:1029A000A37450F07D9690000AE493FC9005FBE040
:1029B000C39C5006E004F0022C219005FBE4F0904B
:1029C000048CE004F0700690048BE004F0900602A2
:1029D000E0C39D5005E004F08008900602E4F04357
:1029E000C110C39005FDE09F9005FCE09E500FA331
:1029F000E004F070069005FCE004F0022AA99005BE
:102A0000FCE4F0A3F09005F4E014602A14600302E3
:102A10002AA99005F3E024FE601214601324FE60DE
:102A20001324046003022AA97D02806F7D02806F57
:102A3000E4FD806B806D301C469005F2E024FE6062
:102A40001F1460211460332403705E201A09E4FD12
:102A500030250280468048E4FD3025028041803BDD
:102A600012621E8044201A097D02302502802C80CB
:102A70002E7D02302502802780217D02E480269071
:102A800005F2E024FE601C04701F201A09E4FD30EA
:102A90002502800B8005E4FD3025047F0280077F3E
:102AA000018003E4FDFF125657900002E0FEA3E010
:102AB000FFC39005FFE09F9005FEE09E500FA3E04E
:102AC00004F070069005FEE004F0022B7C9005FEF9
:102AD000E4F0A3F09005E6E024FE602914604E14B3
:102AE0006074147003022B7624046003022B7C9024
:102AF00005F7E014F06003022B7C9005F77401F0F9
:102B00007D02E4801D9005F8E014F0601820A41008
:102B1000E0D394014004E4FD8008E4FD7F01805986
:102B2000E4FDFF80549005F87404F0804F9005F99F
:102B3000E014F0601920A411E0D394024005E4FDF4
:102B4000FF8036E4FD7F028030E4FDFF802B90059E
:102B5000F97405F080269005FAE014F06010E0D3D7
:102B60009401400512621E8013E4FDFF800B900566
:102B7000FA7403F08006E4FDFF1256579005F5E065
:102B80007002A3E0600E9005F6E024FFF09005F5DA
:102B9000E034FFF09005F0E07002A3E0600E9005D5
:102BA000F1E024FFF09005F0E034FFF0900609E03A
:102BB000603BA3E0FEA3E0FFC3900601E09F900608
:102BC00000E09E500EA3E004F07029900600E0049F
:102BD000F08021900600E4F0A3F0900609F030198F
:102BE00004D2258002C225A22592B3800790060058
:102BF000E4F0A3F09005E4E07002A3E0601090051B
:102C0000E5E024FFF09005E4E034FFF08002D2928A
:102C100030180E900611E004F07006900610E004E3
:102C2000F030124290048DE0C394145005E004F09B
:102C3000803420132FD2137E007F407DFF7B017AEA
:102C400004799912123E90048FE0FF7E0078997CFF
:102C5000047D017B017A03794A120D6E90048FE0A6
:102C6000900519F0C212D007D006D005D004D003C9
:102C7000D002D001D000D0D0D082D083D0F0D0E02C
:102C8000324606030000000000004105FB0042053B
:102C9000FC00004205FE0000420600000041060262
:102CA000004105F7014105F8044105F9054105FA20
:102CB000034F0593020202040404070707060503F5
:102CC0000300006078051B030100000000000007FE
:102CD00002000000000000030300000000000001EB
:102CE00002040500000000050403020000000001CA
:102CF00002060700000000050506040301050007A1
:102D0000070506010204000606020301040700018C
:102D1000020506030400000102030406000000058A
:102D20000202000000000007040400000000000090
:102D3000000000000000000000000000000000C1D2
:102D4000A0C1A1C1A2010800C11AC119C11842063F
:102D500010000041060E0041060F00C115C116C14A
:102D6000174105F4044105EF014105F3014105F266
:102D700001C19CC11F4105EEFFC11E4205F50000C7
:102D80004105ED034205F00000C11D1864FFFFFF7F
:102D9000FFFFFFFFFFFFFFFFFFFFFFFFFFFFFFFF43
:102DA000FFFFFFFFFF09860100060601000B001967
:102DB0000A7C0100070C000000010000098F0100DF
:102DC000060701000B001A4105EA00C19B4105EB13
:102DD000004105EC004306090003E841060C0141EF
:102DE000060D02C1254106140241061500410613D5
:102DF00000C124C12341061200C113C11241048D38
:102E00000041048F00608104990000000000000070
:102E100000000000000000000000000000000000B2
:102E200000000000000000000000000000000000A2
:102E30000000000000000000000000000000000092
:102E40000000000000000000000000000000000082
:102E50000000000000000000000000000000000072
:102E60000000000000000000000000000000000062
:102E70000000000000000000000000000000000052
:102E80000000000000000000000041051A0141049C
:102E9000900246049300000000000041048E21C10E
:102EA00014C11142048B00004204911F40C10DC1A6
:102EB0000E41048A01C10FC1104205E40000C12681
:102EC0004105E606604105A3FF3D57FF3D5EFF3D1E
:102ED000690A0301F4FF3D6DFF3D7BFF3D81050263
:102EE00001F4FF3D84FF3D7BFF3D81050201F4FFBE
:102EF0003D93FF3D7BFF3D81050201F4FF3D9AFFBD
:102F00003D7BFF3D81050201F44105A20000BCECC0
:102F1000B2E2B5BDB7C7B7A8D6B8CEC6B4A5C3FE92
:102F2000A3A1A3A1A3A10A00BCECB2E2B5BDBACF94
:102F3000B7A8D6B8CEC6B4A5C3FEA3ACB6D4D3A6A4
:102F4000D6B8CEC64944CEAAA3BA2025642E0A001C
:102F5000C4A3B0E5D1A7CFB0B3C9B9A62021212120
:102F60000A00C4A3B0E5D1A7CFB0CAA7B0DCA3AC18
:102F7000B3ACCAB1CDCBB3F6202121210A00C4A342
:102F8000B0E5C9BEB3B3C9B9A6202121210A0025E5
:102F90003032582000B5B1C7B0D6B8CEC6C4A3B041
:102FA000E5D5BCCEBBCEAAA3BA2573200A0005DCAA
:102FB000EF01FFFFFFFF0100030100050100040214
:102FC00001000801000402020009010003050009D4
:102FD0000100080401000003A100B201000804017F
:102FE000000000090017010008040100000064004F
:102FF000720100030D00110100031D0021000000FB
:1030000000000000000000000000000000000000C0
:1030100000000000000000000000000000000000B0
:1030200000000000000000000000000000000000A0
:103030000000000000000000000000000000000090
:103040000000000000000000000000000000000080
:103050000000000000000000000000000000000070
:103060000000000000000000000000000000000060
:1030700000000064320000000000000000000000BA
:103080000000000000000000000000000000000040
:103090000000000000000000000000000000000030
:1030A0000000000000000000000000000000000020
:1030B0000000000000000000000000000000000010
:1030C0000000000000000000000000000000000000
:1030D00000000000000000000000000000000000F0
:1030E00000000000000000000000000000000000E0
:1030F00000000000000000000000000000000000D0
:1031000000000000000000000000000000000000BF
:1031100000000000000000000000000000000000AF
:10312000000078347C007D017BFF7A3E79557E007B
:103130007F04120D6E78387C007D017BFF7A3E792A
:10314000597E007F28120D6E752513752688C2974B
:103150007FC87E00126144D2977FB87E0B12614413
:10316000C2927FE87E03126144D2929005A2E0C32E
:1031700094035005E004F08016E49005A2F0C2929A
:103180007F587E1B126144D2927FB87E0B80143030
:103190009316E5261526AE25700215254E60097F8B
:1031A000017E0012614480E7E52645257002C322B6
:1031B0007FC87E001261447F0F12576040012212C7
:1031C00056B040012220CC557A0579B01256B44051
:1031D000012290010074FFF0A3743DF0A374F3F09A
:1031E000900608E0FF900103E4F0A3EFF07B017A82
:1031F00000793812267A12482C400122900100747E
:10320000FFF0A3743EF0A37416F07B017A007938C6
:1032100012267A12482C400122D226801278FD7C98
:10322000007D017B017A0579BD1256BC40012278F0
:10323000FD7C007D017B017A0579D71256BC4001E7
:10324000227B017A00793490033AE4F0A37404F00D
:103250007F407E00125C2C90010074FFF0A3743E4E
:10326000F0A37437F0900034E0FF900103E4F0A382
:10327000EFF0900035E0FF900105E4F0A3EFF0904F
:103280000036E0FF900107E4F0A3EFF0900037E094
:10329000FF900109E4F0A3EFF07B017A0079381286
:1032A000267A12482C4001229005CAE0FBA3E0FADE
:1032B000A3E0F9126159AD079005CAE0FBA3E0FA5B
:1032C000A3E0F91262397FC87E001261449005CAFA
:1032D000E0FBA3E0FAA3E0F9126159AD079005CA3B
:1032E000E0FBA3E0FAA3E0F9126239D3229000FADE
:1032F000EBF0A3EAF0A3E9F0A3EDF090048EE02454
:10330000DF700302342524F460030234B478FF7CB8
:10331000007D017BFF7A2179807E007F20120D6E77
:103320009000FAE0FBA3E0FAA3E0F974CC120DDA06
:103330009000FAE0FBA3E0FAA3E02401F9E43AFAF2
:1033400078FF7C007D017E007F20120D6E9000FAD8
:10335000E0FBA3E0FAA3E0240DF9E43AA801FCADF8
:10336000037B017A0079FF7E007F20120D6E9000B2
:10337000FAE0FBA3E0FAA3E02401F9E43AA801FC97
:10338000AD037B017A0479937E007F06120D6E9067
:1033900000FAE0FBA3E0FAA3E02408F9E43AA8016C
:1033A000FCAD037B017A0679047E007F05120D6E69
:1033B0009000FAE0FBA3E0FAA3E0F990000D742D71
:1033C000120DEC9000FDE090000E120DEC9000FE4E
:1033D000E090000F120DEC2004139000FAE0FBA324
:1033E000E0FAA3E0F99000167420120DEC9000FAB8
:1033F000E0FBA3E0FAA3E02411F9E43AA801FCAD54
:10340000037B017A0679047E007F05120D6E900021
:10341000FA125BAD9000FAE0FBA3E0FAA3E0F990AA
:1034200000100234B09000FAE0FBA3E0FAA3E0F948
:1034300074AA120DDA9000FAE0FBA3E0FAA3E0F917
:103440009000017421120DEC9000FDE0900002123A
:103450000DEC9000FEE0900003120DEC20041390A0
:1034600000FAE0FBA3E0FAA3E0F990000A7420124E
:103470000DEC9000FAE0FBA3E0FAA3E02405F9E4E8
:103480003AA801FCAD037B017A0679047E007F0532
:10349000120D6E9000FAE0FBA3E0FAA3E0240512FF
:1034A0005BB69000FAE0FBA3E0FAA3E0F990000419
:1034B000EF120DEC2278347C007D017BFF7A477996
:1034C000F67E007F1E120D6E78527C007D017BFF20
:1034D0007A4879147E007F14120D6E7F0A7E0012E6
:1034E00061447B017A00795290033AE4F0A304F03E
:1034F000FF7E00125C2C7F0A7E0012614490005215
:10350000E064A17003023651E4FFFE12609E7F0A60
:103510007E0012614490005274A1F07B017A007920
:103520005290033AE4F0A304F0FF7E00125C6B7F3C
:103530000A7E00126144E4900052F07B017A007927
:103540005290033AF0A304F07F057E00125C6B7F7B
:103550000A7E001261447E007F0C7D007B017A00B0
:10356000795212123E7B017A00795290033AE4F0CC
:10357000A3740DF07F107E00125C6B7F0A7E001238
:1035800061447E007F0C7D007B017A00795212122B
:103590003E7B017A00795290033AE4F0A3740DF077
:1035A0007F207E00125C6B7F0A7E001261447E00E9
:1035B0007F047D007B017A00795212123E7B017AF2
:1035C00000795290033AE4F0A3740DF07F307E004E
:1035D000125C6B7F0A7E001261447E007F0D7D00CD
:1035E0007B017A00795212123E7B017A0079529067
:1035F000033AE4F0A3740DF07F507E00125C6B7F01
:103600000A7E0012614478527C007D017BFF7A487B
:1036100079287E007F04120D6E7B017A007952902A
:10362000033AE4F0A37404F07F407E00125C6B7FE9
:103630000A7E0012614412605D50FB7F0A7E001218
:10364000614490010074FFF0A37447F0A374788084
:103650000D90010074FFF0A37447F0A37482F07B17
:10366000017A00793412267A7B017A00793412616A
:1036700059AD077B017A007934025CAAEFD3940537
:1036800040037F0122120D94FED3940340037F0276
:1036900022EF7041EE700B900001120DADF45293C9
:1036A0005294120D94B4010B900001120DAD42938F
:1036B000F45294120D94FEB4020A900001120DAD62
:1036C00042934294EEB4030D900001120DADFEF44E
:1036D0005293EE4294EF64017043120D94FE700B0E
:1036E000900001120DADF452915292EEB4010B9084
:1036F0000001120DAD4291F45292120D94B4020ADF
:10370000900001120DAD42914292120D94B4030D3E
:10371000900001120DADFEF45291EE4292EF640260
:103720007043120D94FE700B900001120DADF45217
:10373000955296EEB4010B900001120DAD4295F436
:103740005296120D94B4020A900001120DAD4295EA
:103750004296120D94B4030D900001120DADFEF4CB
:103760005295EE4296EF64037043120D94FE700B77
:10377000900001120DADF452B152B2EEB4010B90B3
:103780000001120DAD42B1F452B2120D94B4020A0E
:10379000900001120DAD42B142B2120D94B4030D6E
:1037A000900001120DADFEF452B1EE42B2EF64048E
:1037B0007043120D94FE700B900001120DADF45287
:1037C000B352B4EEB4010B900001120DAD42B3F44C
:1037D00052B4120D94B4020A900001120DAD42B31E
:1037E00042B4120D94B4030D900001120DADFEF41D
:1037F00052B3EE42B4EF64057043120D94FF700BA8
:10380000900001120DADF452C952CAEFB4010B90F1
:103810000001120DAD42C9F452CA120D94B4020A4D
:10382000900001120DAD42C942CA120D94B4030DAD
:10383000900001120DADFFF452C9EF42CA7F002281
:103840007E03E4900044F0C20012599C7808EFF621
:1038500090060EE0FD6F6013A3E0C394035005E0F3
:1038600004F08007E490060FF0D200200003023A33
:1038700000C2007808E6FE6D900044F090060EEE5F
:10388000F0E4FF125903900044E030E065A37403B4
:10389000F090060EE030E022D201123BBA401590C3
:1038A0000045E0600F7FD07E07126144900045E044
:1038B00014F080E47E417FCC8020C201123BBA40EC
:1038C00015900045E0600F7FD07E071261449000A4
:1038D00045E014F080E47E417FED1261DA9000450E
:1038E000E070031200009005F47401F09005E67496
:1038F00006F0900044E030E13290060EE0540C13E4
:1039000013543FFF64026005EF6403701EB225A2EA
:103910002592B390060EE030E108D2197E427F0F67
:103920008006C2197E427F211261DA900044E05481
:103930000C606790060EE0540C1313543F14602281
:1039400014602F14603C2403705090060C7401F036
:1039500090060D04F07E427F331261DA7E427F4A88
:10396000803590060C7401F090060DF07E427F5F6A
:10397000802590060C7402F090060DF07E427F7454
:10398000801590060C7402F090060DF07E427F7454
:103990001261DA7E427F8B1261DA900044E054308B
:1039A000605E90060EE05430C4540F14601A146028
:1039B000271460342403704190060A7403F0A37442
:1039C000E8F07E427FBC802E90060A740BF0A37450
:1039D000B8F07E427FD5801E90060A7413F0A3745F
:1039E00088F07E427FEE800E90060A7427F0A37462
:1039F00010F07E437F071261DA7E437F211261DA85
:103A000022900047EBF0A3EAF0A3E9F0EF60030295
:103A10003B2A784C7C007D017BFF7A2179A07E00D7
:103A20007F20120D6E900047E0FBA3E0FAA3E0F9BF
:103A300074CC120DDA900047E0FBA3E0FAA3E02477
:103A400001F9E43AFA784C7C007D017E007F201277
:103A50000D6E900047E0FBA3E0FAA3E0240DF9E42B
:103A60003AA801FCAD037B017A00794C7E007F20EF
:103A7000120D6E900047E0FBA3E0FAA3E02401F9E9
:103A8000E43AA801FCAD037B017A0479937E007FC0
:103A900006120D6E900047E0FBA3E0FAA3E02408B5
:103AA000F9E43AA801FCAD037B017A0679047E00B3
:103AB0007F05120D6E900047E0FBA3E0FAA3E0F94A
:103AC00090000D742D120DEC90004AE090000E1243
:103AD0000DEC90004BE090000F120DEC20001390C5
:103AE0000047E0FBA3E0FAA3E0F99000167420126F
:103AF0000DEC900047E0FBA3E0FAA3E02411F9E409
:103B00003AA801FCAD037B017A0679047E007F05AB
:103B1000120D6E900047125BAD900047E0FBA3E0F2
:103B2000FAA3E0F9900010023BB5900047E0FBA338
:103B3000E0FAA3E0F974AA120DDA900047E0FBA3C3
:103B4000E0FAA3E0F99000017421120DEC90004A14
:103B5000E0900002120DEC90004BE0900003120D7B
:103B6000EC200013900047E0FBA3E0FAA3E0F990FB
:103B7000000A7420120DEC900047E0FBA3E0FAA3CA
:103B8000E02405F9E43AA801FCAD037B017A06794B
:103B9000047E007F05120D6E900047E0FBA3E0FA63
:103BA000A3E02405125BB6900047E0FBA3E0FAA374
:103BB000E0F9900004EF120DEC2278467C007D01C4
:103BC0007BFF7A3E79817E007F28120D6E302603BE
:103BD000023D537525137526889005F47404F09002
:103BE00005E604F0C2977FC87E00126144D2977F39
:103BF000B87E0B126144C2927FE87E03126144D208
:103C000092309316E5261526AE25700215254E60D6
:103C1000097F0A7E0012614480E7E526452570028F
:103C2000C3227FE87E031261447F0A12576040017D
:103C3000221256B0400122200103023CFC78FD7C98
:103C4000007D017B017A0579B01256BC40012290BB
:103C5000010074FFF0A3743DF0A374F3F090060824
:103C6000E0FF900103E4F0A3EFF07B017A007946D6
:103C700012267A90010E7401F0A37405F0A374DA91
:103C8000F0A37401F0A37405F0A374E0F09005E2D2
:103C9000E0FFA3E0900114CFF0A3EFF0A37405F0D0
:103CA0007B017A00794612485F400122900100743E
:103CB000FFF0A3743EF0A37416F07B017A007946FE
:103CC00012267A90010E7401F0A37405F0A374DA41
:103CD000F0A37401F0A37405F0A374E0F09005E282
:103CE000E0FFA3E0900114CFF0A3EFF0A37405F080
:103CF0007B017A00794612485F40132278FD7C00F0
:103D00007D017B017A0579BD1256BC4001229005E8
:103D1000CAE0FBA3E0FAA3E0F9126159AD079005F0
:103D2000CAE0FBA3E0FAA3E0F91262397FC87E0083
:103D30001261449005CAE0FBA3E0FAA3E0F9126126
:103D400059AD079005CAE0FBA3E0FAA3E0F91262BF
:103D5000398002C226D32241542B450D0A0041541A
:103D60002B450D0A0D2B6F6B002B6F6B0041542BF5
:103D7000574D4F44453D41500D0A002B6F6B0D0AC6
:103D8000006F6B0041542B574D4F44453D535441F8
:103D90000D0A0041542B5A0D0A0041542B4E455434
:103DA000503D5544502C5345525645522C383836C8
:103DB000362C3139322E3136382E352E310D0A005F
:103DC00057494649C4A3BFE9736D6172746C696E4B
:103DD0006BD2D1C6F4B6AFA3A10A0057494649C475
:103DE000A3BFE9BBD6B8B4B3F6B3A7C9E8D6C3A39B
:103DF000A10A0041542B5741503D313142474E2CCE
:103E00004C414E424F4E5F465053575F25642C4104
:103E100055544F0D0A0041542B57414B45593D57BE
:103E200050413250534B2C4145532C6C616E626FA4
:103E30006E3132330D0A0041542B534F434B423DF8
:103E40005544502C38302C25642E25642E25642EA4
:103E500025640D0A000000000000000000000000C2
:103E60000000000000000000000000000000000052
:103E70000000000000000000000000000000000042
:103E80000000000000000000000000000000000032
:103E90000000000000000000000000000000000022
:103EA0000000000000000000000000000000000012
:103EB0000000000000000000000000000000000002
:103EC00000000000000000000000000000000000F2
:103ED000000000000078FA7C007D017BFF7A4779C2
:103EE000C07E007F1E120D6E78187C017D017BFF65
:103EF0007A4779DE7E007F14120D6E900131746472
:103F0000F0A37414F07B037D087F01124BE8125D6F
:103F1000F7E4FFFE12609E7F0A7E0012614490016A
:103F20001874A1F07B017A01791890033AE4F0A3A8
:103F300004F0FF7E00125C6B7F0A7E00126144E495
:103F4000900118F07B017A01791890033AF0A304EC
:103F5000F07F057E00125C6B7F0A7E001261447E5A
:103F6000007F0C7D007B017A01791812123E7B01E3
:103F70007A01791890033AE4F0A3740DF07F107E73
:103F800000125C6B7F0A7E001261447E007F0C7D14
:103F9000007B017A01791812123E7B017A017918AF
:103FA00090033AE4F0A3740DF07F207E00125C6B66
:103FB0007F0A7E001261447E007F047D007B017ACF
:103FC00001791812123E7B017A01791890033AE4C4
:103FD000F0A3740DF07F307E00125C6B7F0A7E00D0
:103FE0001261447E007F0D7D007B017A01791812F9
:103FF000123E7B017A01791890033AE4F0A3740D24
:10400000F07F507E00125C6B7F0A7E001261447864
:10401000187C017D017BFF7A4779F27E007F0412D4
:104020000D6E7B017A01791890033AE4F0A37404D1
:10403000F07F407E00125C6B7F0A7E0012614412AA
:10404000605D50FB7F0A7E001261447E477F55020F
:1040500061DAD3D0D0A7B6A8CAB1A3BA2564BAC5CD
:104060002C20B6A85FCAB13A25642C20B6A85FB749
:10407000D63A2564200A0074696D655F41313A20A3
:1040800025642C2074696D655F42313A2025640AED
:104090002074696D655F41323A2025642C20746973
:1040A0006D655F42323A2025640A2074696D655F50
:1040B00041333A2025642C2074696D655F42333AA0
:1040C0002025640A2074696D655F41343A202564B7
:1040D0002C2074696D655F42343A2025640A20748F
:1040E000696D655F4E4F573A2025640A3D3D3D3D61
:1040F0003D3D3D3D3D6C6F675F646174733C3C3C8E
:104100000A0A00000000000000000000000000009B
:10411000000000000000000000000000000000009F
:10412000000000000000000000000000000000008F
:10413000000000000000000000000000000000007F
:10414000000000000000000000000000000000006F
:10415000000000000000000000000000000000005F
:10416000000000000000000000000000000000004F
:10417000000000000000000000000000000000003F
:10418000000000000000000000000000000000002F
:10419000000000000000000000000000000000001F
:1041A000000000000000000000000000000000000F
:1041B00000000000000000000000000000000000FF
:1041C00000000000000000000000000057494649C0
:1041D000C4A3BFE9D2D1C5E4D6C3D6C1204150C4DF
:1041E000A3CABD2CB5C8B4D6D8C6F40A00574946F0
:1041F00049C4A3BFE9D2D1C5E4D6C3D6C120535424
:1042000041C4A3CABD2CB5C8B4D6D8C6F40A00C7E9
:10421000D0BBBBD6C1B1B3B9E2B7BDB0B8412E0A6D
:1042200000C7D0BBBBD6C1B1B3B9E2B7BDB0B842CD
:104230002E0A00BFAAB9D8D2D1C7D0BBBBD6C1B74E
:10424000ADD7AAC4A3CABD2E0A00BFAAB9D8BCC79D
:10425000D2E4B9A6C4DCD2D1B9D8B1D52E0A00BFF8
:10426000AAB9D8BCC7D2E4B9A6C4DCD2D1BFAAC609
:10427000F42E0A00BFAAB9D8D2D1C7D0BBBBD6C1D1
:10428000D1D3CAB1C4A3CABD2E0A00D1D3CAB1C406
:10429000A3CABDCFC2A3ACBFAAB9D8BCC7D2E4CE13
:1042A000DED2E2D2E5A3ACBFAAB9D8BCC7D2E4B98A
:1042B000A6C4DCD2D1B9D8B1D52E0A00B5B1C7B0E9
:1042C000D1D3CAB1B2A6C2EBD2D1B5F7D6C1203193
:1042D000C3EB2E0A00B5B1C7B0D1D3CAB1B2A6C2E2
:1042E000EBD2D1B5F7D6C12033C3EB2E0A00B5B15E
:1042F000C7B0D1D3CAB1B2A6C2EBD2D1B5F7D6C13D
:104300002035C3EB2E0A00B5B1C7B0D1D3CAB1B2C4
:10431000A6C2EBD2D1B5F7D6C1203130C3EB2E0AFD
:1043200000BFAAB9D8B4A6D3DAD1D3CAB1C4A3CA3C
:10433000BDCAB1CAB1C9FAD0A72E0A0000010BB894
:104340003A98EA609000FAEBF0A3EAF0A3E9F0787B
:10435000987C007D007BFF7A3E79A97E007F281241
:104360000D6E78C07C007D007BFF7A3E79D17E00A7
:104370007F04120D6E7B007A0079C090033AE4F05E
:10438000A37404F07F407E00125C2C78C07C007D1A
:10439000009000FAE0FBA3E0FAA3E0F97E007F04BE
:1043A00012121AEF7002D3229000FAE0FBA3E0FA97
:1043B000A3E0F9900133E4F0A37404F07F407E00A1
:1043C00012551890010074FFF0A3743EF0A37437E7
:1043D000F09000FAE0FBA3E0FAA3E0F9120D94FFDD
:1043E000900103E4F0A3EFF0900001120DADFF90F7
:1043F0000105E4F0A3EFF0900002120DADFF900173
:1044000007E4F0A3EFF0900003120DADFF90010957
:10441000E4F0A3EFF07B007A00799812267A7F0A05
:104420001257604001221256B040012290010E74D2
:1044300001F0A37405F0A374DAF0A37401F0A3747F
:1044400005F0A374E0F09005E2E0FFA3E090011412
:10445000CFF0A3EFF0A37405F07B007A00799812F7
:10446000485F4001229005CAE0FBA3E0FAA3E0F90F
:10447000126159AD079005CAE0FBA3E0FAA3E0F989
:104480001262397FC87E001261449005CAE0FBA326
:10449000E0FAA3E0F9126159AD079005CAE0FBA369
:1044A000E0FAA3E0F91262392093FD7FB87E0B1287
:1044B0006144D3229000C0EBF0A3EAF0A3E9F0ED51
:1044C0001460160470297B017A0079C390033AE4E2
:1044D000F0A3740CF07F1080117B017A0079C390F7
:1044E000033AE4F0A3740CF07F207E00125C2CE40D
:1044F0009000CFF09000CFE0FFC39404400302454A
:10450000F8E0FE75F003A424C3F582E43400F583DB
:10451000E0547FFD9000C0E0FBA3E0FAA3E0F97552
:10452000F003EEA4F582E92582F9EA35F0FA120DDE
:104530009454804DFE120DDAEF75F003A424C3F5F8
:1045400082E43400F583E05480C41313135401C48F
:104550003333335480FDEE547F4D120DDAEF75F096
:1045600003A424C4F582E43400F583E054E0C413CA
:104570005407FD9000CFE075F003A4FF9000C0E069
:10458000FBA3E0FAA3E02FF9EA35F0FAE92401F9F8
:10459000E43AFA120D9454F84DFF120DDA9000CF60
:1045A000E0FE75F003A424C4F582E43400F583E052
:1045B000541F33333354F8FDEF54074D120DDAEE28
:1045C00075F003A424C5F582E43400F583E0FD9082
:1045D00000CFE075F003A4FF9000C0E0FBA3E0FA79
:1045E000A3E02FF9EA35F0FA900002ED120DEC90FD
:1045F00000CFE004F00244F42278467C007D017B89
:10460000FF7A2F79FD7E007F3C120D6E301F037FF5
:10461000FF229005F2E0640170497F01125F7E780D
:104620006DE6703F9005F27402F0125A687F0C122A
:1046300055FD786DE67026125B2B7F101255FD78C4
:104640006DE69005F270117403F0786FE69005EA5C
:10465000F0E4FF125903800B7404F080069005F219
:104660007401F09005F2E0640470497F01125F7EEE
:104670007B087D087C007F04126019786DE6640277
:1046800070329005F204F0C21F90010074FFF0A395
:10469000742FF0A3740EF07B017A00794612267A0B
:1046A0007B017A007946126159AD077B017A007966
:1046B00046125CAA9005F2E0640370587F01125F15
:1046C0007E301B04C21BD21F786DE66402704590D9
:1046D00005F204F0D21B90010074FFF0A3742FF0D8
:1046E000A37428F09005EAE0FF900103E4F0A3EF43
:1046F000F07B017A00794612267A7B017A007946AE
:10470000126159AD077B017A007946125CAA9005C7
:10471000EAE0FF227FFF22C8EDBCFEB8B4CEBBD2D8
:10472000D1B4A5B7A22E200A004D4143B5D8D6B7C3
:10473000B8FCD0C2A3BA25303258202530325820D8
:104740002530325820253032582025303258202547
:104750003032580A00454550524F4DBBD6B8B4B31D
:10476000F6B3A7C9E8D6C32CC4DAB2BFB4E6B4A284
:10477000C7E5BFD5A3A10A00CAD7B4CEC6F4B6AF69
:104780000A00B7C7CAD7B4CEC6F4B6AF0A00000055
:104790000000000000000000000000000000000019
:1047A0000000000000000000000000000000000009
:1047B00000000000000000000000000000000000F9
:1047C00000000000000000000000000000000000E9
:1047D00000000000000000000000000000000000D9
:1047E00000000000000000000000000000000000C9
:1047F00000002F34056C00000000000000000000E5
:1048000000000000000000000000000000000000A8
:104810000000000000000000000000000000000098
:1048200000000000000000002F34056C90010E74A1
:1048300001F0A37405F0A374DAF0A37401F0A3747B
:1048400005F0A374E0F09005E2E0FFA3E09001140E
:10485000CFF0A3EFF0A37405F07B017A00793890D4
:10486000010BEBF0A3EAF0A3E9F0E4900117F0A349
:10487000F0A3F0A3F0C213900117F0900116E0FF2F
:10488000A3E0C39F400302493F900114E0FFA3E06F
:10489000900119CFF0A3EFF090010BE0FBA3E0FA39
:1048A000A3E0F9126159AD0790010BE0FBA3E0FA18
:1048B000A3E0F912623990011974FFF5F0120E8B22
:1048C00045F060727F027E001261443013E8C2132B
:1048D000E4900118F0900118E0FFC3940250D790C3
:1048E0000519E0FD90010EE0FBA3E0FAA3E0F975E5
:1048F000F003EFA4F58285F08312103890011FEBCE
:10490000F0A3EAF0A3E9F0900111E0FBA3E0FAA321
:10491000E0F98F82758300120DAD900122F07B01CA
:104920007A047999124A4BEA494B6002D3229001EA
:1049300018E004F0809F900117E004F002487BC368
:1049400022900046EFF0A3EDF0A37403F0E4A3F08F
:104950007A0079649005E7F0A37400F0A37464F022
:104960009005EFE024FE605F147003024A112402F8
:104970006003024A4A7F02125F7E786DE6701D90E6
:1049800005F57427F0A37410F0125A687F0C1255C5
:10499000FD786DE670069005F37402F09005F3E083
:1049A00064026003024A4A7F01125F7E786DE6640A
:1049B000026003024A4A9005EF7402F09005F57414
:1049C00027F0A37410F0227F03125F7E786DE670EB
:1049D00020125AA97F0C1255FD786DE67013125AF9
:1049E000EA7F0C1255FD786DE670069005F37403AE
:1049F000F09005F3E0640370517F01125F7E7F0B3E
:104A0000125903786DE6640270409005EF7403F06C
:104A100022900046E0FFA3E0FD124FBD7F0C12552F
:104A2000FD786DE670069005F37404F09005F3E0F0
:104A3000B404177F01125F7E786DE6B4020C900516
:104A4000EF7404F09005F37406F02290011EEDF06F
:104A500090011BEBF0A3EAF0A3E9F0E4900123F04E
:104A6000A3EBF0A3EAF0A3E9F090011FE0F9A3E0C3
:104A7000FAA3E0900127C9F0A3EAF0A3E9F09001BE
:104A80001BA3E0FAA3E0AE02FF900124A3E0FAA387
:104A9000E0C39FFFEA9EFE900122E07C002FFFEC26
:104AA0003EFE90011EE0FDD3EF9D7480F86E98509D
:104AB00067900127E0FBA3E475F001120E8BA9F0CB
:104AC000FA120D94FF900124E0FBA3E475F00112AB
:104AD0000E8BA9F0FA120D94B50720900123E00483
:104AE000F0900122E0FFA3E0B507C6A3E0FBA3E03E
:104AF000FAA3E0C39FF9EA9400FA2290011FE0F9BB
:104B0000A3E0FAA3E0900127C9F0A3EAF0A3E9F03B
:104B1000E4900123F0024A7E7B007A00790022783B
:104B2000347C007D017BFF7A47798E7E007F3212D4
:104B30000D6E900066747FF0A374F8F07B017A002C
:104B40007934126159AD077B017A007934125CAA7D
:104B5000900067E024FAFF900066E034FFFAA907AE
:104B60007BFF78037C067D017E007F06120D6E9030
:104B7000010074FFF0A37447F0A37429F0900603BA
:104B8000E0FF900103E4F0A3EFF0900604E0FF9053
:104B90000105E4F0A3EFF0900605E0FF900107E4C3
:104BA000F0A3EFF0900606E0FF900109E4F0A3EF18
:104BB000F0900607E0FF90010BE4F0A3EFF0900601
:104BC00008E0FF90010DE4F0A3EFF07B017A00799B
:104BD0003412267A7B017A007934126159AD077B51
:104BE000017A007934025CAA90012EEFF0A3EDF077
:104BF000E4900133F0A3F0A3F0A3F0A3F0A3F0AF8F
:104C000003900133F0A3EFF0900133E07002A3E0D2
:104C10007003024CAB900131E075F00AA4FF9001E3
:104C200037E5F0F0A3EFF0900137E07002A3E06009
:104C30005990012EE0FF7E007C007D64120E0E90E4
:104C40000135EEF0A3EFF0900135E0FCA3E0FD4C60
:104C500060280090012FE075F00AA4FFC3ED9FECDF
:104C600095F04004D2A68002C2A6900136E024FF4F
:104C7000F0900135E034FFF080CD900138E024FF62
:104C8000F0900137E034FFF0809D900132E0600A3F
:104C900075F00AA4FFAEF0126144900134E024FFE5
:104CA000F0900133E034FFF0024C08D2A6227834B1
:104CB0007C007D017BFF7A3079757E007F64120D68
:104CC0006E78987C007D017BFF7A3079D97E007FF9
:104CD0003C120D6E78987C007D007BFF7A3179154F
:104CE0007E007F0D120D6EE478A5F6FB7A007998B0
:104CF00090033AF0A3740DF07F507E00125C2CE418
:104D000078A5F678A5E6FFC3940D5031EF75F00352
:104D1000A42498F9740035F0FA7B0190010074FF27
:104D2000F0A3742FF0A3748FF0E62498F8E6FFA3A5
:104D3000E4F0A3EFF012267A78A50680C690010071
:104D400074FFF0A3742FF0A37495F0A37401F0A383
:104D50007400F0A37498F07B017A00793412267AFB
:104D60007B017A007934126159AD077B017A0079B1
:104D700034025CAAA3F0E4A3F0A3F0A3F0A3F0A391
:104D8000F07DAA9000FAEBF0A3EAF0A3E9F0A3ED1E
:104D9000F07E007F0E7D009000FAE0FBA3E0FAA316
:104DA000E0F912123E9000FDE0FF9000FAE0FBA354
:104DB000E0FAA3E0F9EF120DDA9000FEE0FF9000B8
:104DC000FAE0FBA3E0FAA3E0F9900001EF120DEC8A
:104DD0009000FFE0900002120DEC9000FAE0FBA3BF
:104DE000E0FAA3E02404F9E43AA801FCAD037B0156
:104DF0007A0679047E007F05120D6E900100E0FFB7
:104E00009000FAE0FBA3E0FAA3E0F9900009EF12AA
:104E10000DEC900101E090000A120DEC900102E00F
:104E200090000B120DEC900103E090000C120DECC1
:104E3000900104E090000D020DEC900044EBF0A313
:104E4000EAF0A3E9F01262305003024EE0D21720DC
:104E50001802D21890433EE493FE740193FF90062B
:104E600010E0FCA3E0FDC39FEC9E402E904340E485
:104E700093FE740193FFD3ED9FEC9E501D20151AF5
:104E80009005F47404F09005E67402F0900047A3D6
:104E9000E0FAA3E0F912108ED215904340E493FE9D
:104EA000740193FF900610E0FCA3E0FDC39FEC9E0D
:104EB000404C904342E493FE740193FFD3ED9FEC8A
:104EC0009E503B2016389005F47404F09005E614CB
:104ED000F090004AA3E0FAA3E0F912108ED2162255
:104EE000C218301719C217E4900610F0A3F0C215CB
:104EF000C2169005E67406F09005F47401F0229055
:104F000000C0EBF0A3EAF0A3E9F07F08125E2A12DA
:104F100061EA9000C0E0FBA3E0FAA3E0F9EF120D14
:104F2000DA7F07125E2A1261EA9000C0E0FBA3E07C
:104F3000FAA3E0F9900001EF120DEC7F06125E2A51
:104F40001261EA9000C0E0FBA3E0FAA3E0F9900050
:104F500002EF120DEC7F05125E2A1261EA9000C08A
:104F6000E0FBA3E0FAA3E0F9900003EF120DEC7F61
:104F700004125E2A1261EA9000C0E0FBA3E0FAA3EB
:104F8000E0F9900004EF120DEC7F03125E2A12612B
:104F9000EA9000C0E0FBA3E0FAA3E0F9900005EF7F
:104FA000120DEC7F02125E2A1261EA9000C0E0FB53
:104FB000A3E0FAA3E0F9900006EF020DECAB05AA1E
:104FC0000790004A12100700000000AF02788BA67D
:104FD00007AF0308A607E490004EF090004AE0F8FF
:104FE000A3E0F9A3E0FAA3E0FBC000A3E02486F865
:104FF000E6FFE4FCFDFED000EB2FFFEE3AFEED39BC
:10500000FDEC38FC90004A120FFB90004EE004F0DB
:10501000E0B407C790004AA3A3E0FEA3E4FFE4FDC9
:10502000FC7808120FB8788DA60790004AE0FCA320
:10503000E0FDA3E0FEA3E0FFE408A607A3F09000D4
:105040004EE0FFC394065011EF902FB093FF126211
:105050003690004EE004F080E5E490004EF09000C1
:105060004EE0FFC39409501174862FF8E6FF1262D8
:105070003690004EE004F080E5229000FEECF0A3B4
:10508000EDF0A3EBF0A3740AF0EF75F032A4246402
:10509000FFE435F0A3F0FAA3EFF0FB9000FEE0FE92
:1050A000A3E0FF7C037DE8120E0EAD03AC02120EEE
:1050B00020900104EEF0A3EFF0E4A3F0A3F0900140
:1050C00004E0FEA3E0FFC3900107E09F900106E02B
:1050D0009E5052C2A6900101E0FD7C00A3E0FEA319
:1050E000E0FF120E20900100E0FD7C00120E0E1277
:1050F000607ED2A6A3E0FBA3E0FEA3E0FFAD031217
:105100000E20900100E0FDC3EB9DFDE49400FC1235
:105110000E0E12607E900107E004F070A19001066F
:10512000E004F0809922C0E0C0F0C083C082C0D00B
:1051300075D000C000C001C002C003C004C005C0DB
:1051400006C00730983CC298900342E070342012A9
:1051500018D21290048DF090048FF0FE7F407DFFF6
:105160007B017A03794A12123E90048FE0FF04F02B
:10517000744A2FF582E43403F583E599F090048DA9
:10518000E4F0309930C29990033EE0FF90033DE097
:10519000FE6F601C74CA2EF582E43403F583E0F5DB
:1051A0009990033DE004F0C394804009E4F0800549
:1051B00090033FE4F0D007D006D005D004D003D050
:1051C00002D001D000D0D0D082D083D0F0D0E03255
:1051D00090060CE024FE604A046003025272301F05
:1051E00009C21FC2047F0112549F900490E0146012
:1051F0000E0470189004907402F0C204FF800A90AC
:1052000004907402F0C2047F0312549F900614E0CD
:1052100014600D04705C9006147402F0C2048042A5
:105220008043301F09C21FD2047F0212549F900492
:1052300090E014600E0470189004907402F0D20490
:10524000FF800A9004907402F0C2047F0312549FFE
:10525000900614E014600E0470189006147402F0A6
:10526000D204FF800A9006147402F0C2047F031275
:10527000549F22E4900034F078357C007D017BFF60
:105280007A5379DFFE7F0F120D6EE4900034F090B8
:105290000034E0FFC39403506AE0FE75F005A424D7
:1052A00039F582E43400F583E0FDEE75F005A424C1
:1052B00038F582E43400F583E0C39D5013EF75F0B8
:1052C00005A42438F582E43400F583E004F0802B53
:1052D000900034E0FF75F005A42438F582E4340032
:1052E000F583E4F0EF75F005A42435F582E434008D
:1052F000F583A3E0FAA3E0F912108E900034E004E5
:10530000F0808C125EB18082787FE4F6D8FD7581E2
:10531000C302534F0258B3E493A3F8E493A34003AA
:10532000F68001F208DFF48029E493A3F8540724FF
:105330000CC8C333C4540F4420C8834004F45680BF
:105340000146F6DFE4800B01020408102040809043
:105350002C81E47E019360BCA3FF543F30E50954E7
:105360001FFEE493A360010ECF54C025E060A84067
:10537000B8E493A3FAE493A3F8E493A3C8C582C85E
:10538000CAC583CAF0A3C8C582C8CAC583CADFE933
:10539000DEE780BE69276D207561727420666F72CA
:1053A000206C6F67202121210A0050726F647563A1
:1053B000745F4C616E626F6E20696E697469616CB6
:1053C000697A6520636F6D706C6574652C20486523
:1053D0006C6C6F7720576F726C642121210A00FF7B
:1053E00000460002FF12E70001FF57B7000100006E
:1053F00000000000000000000000000000000000AD
:10540000000000000000000000000000000000009C
:1054100000000000000000000000E4900046F0A33F
:10542000F0EF7881F6E4900048F0900048E0FFC388
:105430009408501B747C2FF8E6FF900047E02FF093
:10544000900046E03400F0900048E004F080DB90EB
:105450000046E07884F6900046E0A3E008F6E49089
:105460000048F0900048E0FFC394065011EF902FE1
:10547000B093FF126236900048E004F080E5E490BB
:105480000048F0900048E0FFC3940A5011747C2F4C
:10549000F8E6FF126236900048E004F080E52290C2
:1054A000012CEFF0E4A3F09001317414F0A3740A1E
:1054B000F07B027D087F01124BE890012CE024FE76
:1054C000600B14601C24027026B225801D30190464
:1054D000C2258002D2253004169006097401F0809E
:1054E0000E301904D2258002C225E4900609F0A2EC
:1054F0002592B390060DE0B4011DA225E43390017E
:105500002DF07B017A01792D900133E4F0A304F0B2
:105510007F027E001255182290012EEEF0A3EFF0CC
:10552000A3EBF0A3EAF0A3E9F078357C017D017BE1
:10553000FF7A62793C7E027F00120D6E7B017A0158
:10554000793590033A7402F0A3E4F0FFFE125C2C6C
:10555000E4FF12609E900133E0FEA3E0FF90012E75
:10556000E0FCA3E02435F974013CA801FC7D01A313
:10557000E0FBA3E0FAA3E0F9120D6E7B017A01795A
:105580003590033A7402F0A3E4F0FFFE025C6B90E6
:1055900000FAE0FF12616EAD077F08125F579000BE
:1055A000FBE0FF12616EAD077F07125F579000FCB2
:1055B000E0FF600A12616EAD077F06125F57900030
:1055C000FDE0FF12616EAD077F05125F579000FE90
:1055D000E0FF12616EAD077F04125F579000FFE09D
:1055E000FF12616EAD077F03125F57900100E0FF6D
:1055F000600A12616EAD077F02125F572290012D83
:10560000EFF0E4A3F0F090012DE0FFA3E0C39F5082
:1056100045125CE690012EE02464F8A607301D2EAA
:105620007F647E00126144C21D90012DE0FF7E0068
:105630007DFF7B007A00796412123E9005EF7401C1
:10564000F09005F27404F07F647E000261449001E2
:105650002EE004F080B022EF1460211460382402A0
:10566000704DD2A3D2A1ED14600914600824027019
:1056700006C220D220B220A220929422D2A3D29499
:10568000ED14600914600824027006C221D221B210
:1056900021A22192A122D2A1D294ED14600914601A
:1056A0000824027006C222D222B222A22292A3228F
:1056B0007A0579A378FD7C007D017B017E007F0D5A
:1056C000120D6E90010A7405F090010E7401F0A3A2
:1056D0007401F0A37400F0A37401F0A37401F0A3AB
:1056E0007406F0900108E0FFA3E0900114CFF0A34E
:1056F000EFF090010AE0900116F09000FDE0FBA3AE
:10570000E0FAA3E0F912485F225391FD439202436D
:1057100091015392FE9000347440F0A37402F0A300
:105720001210070000E100E490003AF0A304F0A397
:10573000F0A3F0E4A3F0A3F0A3F07B017A007934A6
:105740007F0212229EBF03F27E007F407D007B011C
:105750007A04794A12123E7BFF7A1E790302619421
:105760009000FDEFF0A3F0E599646160169000FEF3
:10577000E014F0600E7F2B1262337FC87E0012614E
:105780004480E49000FEE07002C3229000FDE0A39C
:10579000F0E599644160169000FEE014F0600E7F21
:1057A000611262337F647E0012614480E49000FEE7
:1057B000E0D37002C32222A20D302401B34024A200
:1057C0000E302301B3401C90060CE0FF90048AE0E9
:1057D000B50710A20F302501B34008A21030140104
:1057E000B35029900491E0FFA3E090048BCFF0A385
:1057F000EFF0C211A224920DA223920E90060CE0AB
:1058000090048AF0A225920FA21492102253B1FDA7
:1058100043B20243B10153B2FE9000347440F0A38E
:105820007401F0A312100700004B0090003A7401BD
:10583000F0A3F0A3F0A3F0E4A3F0A3F0A3F07B01A6
:105840007A0079347F0112229E7E007F807D007B6A
:10585000017A0379CA12123E7BFF7A1D79DD02615B
:1058600081C0E0C083C082C0D075D000C006C00730
:10587000E59A30E131539AFD900345E0FF900344EF
:10588000E0FE6F601C744A2EF582E43404F583E078
:10589000F59B900344E004F0C394404009E4F08099
:1058A00005900346E4F0D007D006D0D0D082D08354
:1058B000D0E032900004E4F0A304F0E4A3F0A3F0FD
:1058C00078087C007D017BFF7A5379EEFE7F2812F9
:1058D0000D6E78307C007D017BFF7A5479167E0056
:1058E0007F04120D6E7E537F941261DA30B4FD1284
:1058F00060F9125E857E537FAA1261DA125273E458
:10590000FEFF229000FAEFF0E4A3F09000FAE0FF2F
:105910002493F582E43405F583E0FE9000FBE0FD7E
:10592000C39E502BEF75F008A4241BF582E43405C8
:10593000F583E5822DF582E43583F583E0FF7B086E
:105940007D037C001260199000FBE004F080BC2213
:10595000E4900034F053B1F743B208C2B320831E81
:105960007B017A00793490033AF0A304F07F027E41
:1059700000125C2C900034E024FF92258019E49002
:105980000034F07B017A007934900133F0A304F005
:105990007F027E00125518A22592B322E4FF20CC8C
:1059A000030F8004EF54FEFFEF20A7054402FF80A1
:1059B0000354FDFFEF2083054404FF800354FBFFE5
:1059C000EF20B2054408FF800354F7FFEF20800565
:1059D0004410FF800354EFFFEF2081054420FF8037
:1059E0000354DFFF22EF75F003A4244CF582E43466
:1059F00000F583E0547FFD900047E0FFAC07A90568
:105A00001CE4FD74017E00A805088005C333CE3375
:105A1000CED8F9FFE9FBEF5B6006EDB50402D322B7
:105A20000DEDB407DEC322E4900084F0900084E022
:105A3000FFC394065011EF902FB093FF126236907F
:105A40000084E004F080E5E4900084F0900084E0BD
:105A5000FFC394065011EF902FB693FF1262369059
:105A60000084E004F080E522E4900082F09000825F
:105A7000E0FFC394065011EF902FB093FF126236EF
:105A8000900082E004F080E5E4900082F0900082D3
:105A9000E0FFC394075011EF902FBC93FF126236C2
:105AA000900082E004F080E522E490004AF090004B
:105AB0004AE0FFC394065011EF902FB093FF12629B
:105AC0003690004AE004F080E5E490004AF090004F
:105AD0004AE0FFC394075011EF902FC393FF126267
